{
  "contracts/Chat.sol": {
    "Chat": {
      "abi": [
        {
          "inputs": [
            {
              "internalType": "address",
              "name": "_authContractAddress",
              "type": "address"
            }
          ],
          "stateMutability": "nonpayable",
          "type": "constructor"
        },
        {
          "anonymous": false,
          "inputs": [
            {
              "indexed": false,
              "internalType": "address",
              "name": "sender",
              "type": "address"
            },
            {
              "indexed": false,
              "internalType": "string",
              "name": "content",
              "type": "string"
            }
          ],
          "name": "MessageSent",
          "type": "event"
        },
        {
          "inputs": [],
          "name": "authContract",
          "outputs": [
            {
              "internalType": "contract Auth",
              "name": "",
              "type": "address"
            }
          ],
          "stateMutability": "view",
          "type": "function"
        },
        {
          "inputs": [],
          "name": "getMessages",
          "outputs": [
            {
              "components": [
                {
                  "internalType": "address",
                  "name": "sender",
                  "type": "address"
                },
                {
                  "internalType": "string",
                  "name": "content",
                  "type": "string"
                }
              ],
              "internalType": "struct Chat.Message[]",
              "name": "",
              "type": "tuple[]"
            }
          ],
          "stateMutability": "view",
          "type": "function"
        },
        {
          "inputs": [
            {
              "internalType": "string",
              "name": "_content",
              "type": "string"
            }
          ],
          "name": "sendMessage",
          "outputs": [],
          "stateMutability": "nonpayable",
          "type": "function"
        }
      ],
      "evm": {
        "bytecode": {
          "linkReferences": {},
          "object": "608060405234801561001057600080fd5b50604051610e1f380380610e1f833981810160405281019061003291906100db565b806000806101000a81548173ffffffffffffffffffffffffffffffffffffffff021916908373ffffffffffffffffffffffffffffffffffffffff16021790555050610108565b600080fd5b600073ffffffffffffffffffffffffffffffffffffffff82169050919050565b60006100a88261007d565b9050919050565b6100b88161009d565b81146100c357600080fd5b50565b6000815190506100d5816100af565b92915050565b6000602082840312156100f1576100f0610078565b5b60006100ff848285016100c6565b91505092915050565b610d08806101176000396000f3fe608060405234801561001057600080fd5b50600436106100415760003560e01c8063469c8110146100465780635ff6cbf314610062578063b62367c914610080575b600080fd5b610060600480360381019061005b919061053c565b61009e565b005b61006a610277565b6040516100779190610744565b60405180910390f35b6100886103be565b60405161009591906107c5565b60405180910390f35b60008060008054906101000a900473ffffffffffffffffffffffffffffffffffffffff1673ffffffffffffffffffffffffffffffffffffffff16636f77926b336040518263ffffffff1660e01b81526004016100fa91906107ef565b600060405180830381865afa158015610117573d6000803e3d6000fd5b505050506040513d6000823e3d601f19601f8201168201806040525081019061014091906108b2565b9150915080610184576040517f08c379a000000000000000000000000000000000000000000000000000000000815260040161017b9061096b565b60405180910390fd5b600160405180604001604052803373ffffffffffffffffffffffffffffffffffffffff16815260200185815250908060018154018082558091505060019003906000526020600020906002020160009091909190915060008201518160000160006101000a81548173ffffffffffffffffffffffffffffffffffffffff021916908373ffffffffffffffffffffffffffffffffffffffff16021790555060208201518160010190816102369190610b97565b5050507f0d7fccda06d6eb51c23cbd16d49b9b3f3ebafb002dba1b074895cbb35d0e8130338460405161026a929190610ca2565b60405180910390a1505050565b60606001805480602002602001604051908101604052809291908181526020016000905b828210156103b557838290600052602060002090600202016040518060400160405290816000820160009054906101000a900473ffffffffffffffffffffffffffffffffffffffff1673ffffffffffffffffffffffffffffffffffffffff1673ffffffffffffffffffffffffffffffffffffffff168152602001600182018054610324906109ba565b80601f0160208091040260200160405190810160405280929190818152602001828054610350906109ba565b801561039d5780601f106103725761010080835404028352916020019161039d565b820191906000526020600020905b81548152906001019060200180831161038057829003601f168201915b5050505050815250508152602001906001019061029b565b50505050905090565b60008054906101000a900473ffffffffffffffffffffffffffffffffffffffff1681565b6000604051905090565b600080fd5b600080fd5b600080fd5b600080fd5b6000601f19601f8301169050919050565b7f4e487b7100000000000000000000000000000000000000000000000000000000600052604160045260246000fd5b61044982610400565b810181811067ffffffffffffffff8211171561046857610467610411565b5b80604052505050565b600061047b6103e2565b90506104878282610440565b919050565b600067ffffffffffffffff8211156104a7576104a6610411565b5b6104b082610400565b9050602081019050919050565b82818337600083830152505050565b60006104df6104da8461048c565b610471565b9050828152602081018484840111156104fb576104fa6103fb565b5b6105068482856104bd565b509392505050565b600082601f830112610523576105226103f6565b5b81356105338482602086016104cc565b91505092915050565b600060208284031215610552576105516103ec565b5b600082013567ffffffffffffffff8111156105705761056f6103f1565b5b61057c8482850161050e565b91505092915050565b600081519050919050565b600082825260208201905092915050565b6000819050602082019050919050565b600073ffffffffffffffffffffffffffffffffffffffff82169050919050565b60006105dc826105b1565b9050919050565b6105ec816105d1565b82525050565b600081519050919050565b600082825260208201905092915050565b60005b8381101561062c578082015181840152602081019050610611565b60008484015250505050565b6000610643826105f2565b61064d81856105fd565b935061065d81856020860161060e565b61066681610400565b840191505092915050565b600060408301600083015161068960008601826105e3565b50602083015184820360208601526106a18282610638565b9150508091505092915050565b60006106ba8383610671565b905092915050565b6000602082019050919050565b60006106da82610585565b6106e48185610590565b9350836020820285016106f6856105a1565b8060005b85811015610732578484038952815161071385826106ae565b945061071e836106c2565b925060208a019950506001810190506106fa565b50829750879550505050505092915050565b6000602082019050818103600083015261075e81846106cf565b905092915050565b6000819050919050565b600061078b610786610781846105b1565b610766565b6105b1565b9050919050565b600061079d82610770565b9050919050565b60006107af82610792565b9050919050565b6107bf816107a4565b82525050565b60006020820190506107da60008301846107b6565b92915050565b6107e9816105d1565b82525050565b600060208201905061080460008301846107e0565b92915050565b600061081d6108188461048c565b610471565b905082815260208101848484011115610839576108386103fb565b5b61084484828561060e565b509392505050565b600082601f830112610861576108606103f6565b5b815161087184826020860161080a565b91505092915050565b60008115159050919050565b61088f8161087a565b811461089a57600080fd5b50565b6000815190506108ac81610886565b92915050565b600080604083850312156108c9576108c86103ec565b5b600083015167ffffffffffffffff8111156108e7576108e66103f1565b5b6108f38582860161084c565b92505060206109048582860161089d565b9150509250929050565b600082825260208201905092915050565b7f55736572206e6f74207265676973746572656400000000000000000000000000600082015250565b600061095560138361090e565b91506109608261091f565b602082019050919050565b6000602082019050818103600083015261098481610948565b9050919050565b7f4e487b7100000000000000000000000000000000000000000000000000000000600052602260045260246000fd5b600060028204905060018216806109d257607f821691505b6020821081036109e5576109e461098b565b5b50919050565b60008190508160005260206000209050919050565b60006020601f8301049050919050565b600082821b905092915050565b600060088302610a4d7fffffffffffffffffffffffffffffffffffffffffffffffffffffffffffffffff82610a10565b610a578683610a10565b95508019841693508086168417925050509392505050565b6000819050919050565b6000610a94610a8f610a8a84610a6f565b610766565b610a6f565b9050919050565b6000819050919050565b610aae83610a79565b610ac2610aba82610a9b565b848454610a1d565b825550505050565b600090565b610ad7610aca565b610ae2818484610aa5565b505050565b5b81811015610b0657610afb600082610acf565b600181019050610ae8565b5050565b601f821115610b4b57610b1c816109eb565b610b2584610a00565b81016020851015610b34578190505b610b48610b4085610a00565b830182610ae7565b50505b505050565b600082821c905092915050565b6000610b6e60001984600802610b50565b1980831691505092915050565b6000610b878383610b5d565b9150826002028217905092915050565b610ba0826105f2565b67ffffffffffffffff811115610bb957610bb8610411565b5b610bc382546109ba565b610bce828285610b0a565b600060209050601f831160018114610c015760008415610bef578287015190505b610bf98582610b7b565b865550610c61565b601f198416610c0f866109eb565b60005b82811015610c3757848901518255600182019150602085019450602081019050610c12565b86831015610c545784890151610c50601f891682610b5d565b8355505b6001600288020188555050505b505050505050565b6000610c74826105f2565b610c7e818561090e565b9350610c8e81856020860161060e565b610c9781610400565b840191505092915050565b6000604082019050610cb760008301856107e0565b8181036020830152610cc98184610c69565b9050939250505056fea2646970667358221220d6bf912c753727a3c3ed6dedc83bb0c87320627523609b90fd7ff2acb28aef8e64736f6c63430008180033",
          "opcodes": "PUSH1 0x80 PUSH1 0x40 MSTORE CALLVALUE DUP1 ISZERO PUSH2 0x10 JUMPI PUSH1 0x0 DUP1 REVERT JUMPDEST POP PUSH1 0x40 MLOAD PUSH2 0xE1F CODESIZE SUB DUP1 PUSH2 0xE1F DUP4 CODECOPY DUP2 DUP2 ADD PUSH1 0x40 MSTORE DUP2 ADD SWAP1 PUSH2 0x32 SWAP2 SWAP1 PUSH2 0xDB JUMP JUMPDEST DUP1 PUSH1 0x0 DUP1 PUSH2 0x100 EXP DUP2 SLOAD DUP2 PUSH20 0xFFFFFFFFFFFFFFFFFFFFFFFFFFFFFFFFFFFFFFFF MUL NOT AND SWAP1 DUP4 PUSH20 0xFFFFFFFFFFFFFFFFFFFFFFFFFFFFFFFFFFFFFFFF AND MUL OR SWAP1 SSTORE POP POP PUSH2 0x108 JUMP JUMPDEST PUSH1 0x0 DUP1 REVERT JUMPDEST PUSH1 0x0 PUSH20 0xFFFFFFFFFFFFFFFFFFFFFFFFFFFFFFFFFFFFFFFF DUP3 AND SWAP1 POP SWAP2 SWAP1 POP JUMP JUMPDEST PUSH1 0x0 PUSH2 0xA8 DUP3 PUSH2 0x7D JUMP JUMPDEST SWAP1 POP SWAP2 SWAP1 POP JUMP JUMPDEST PUSH2 0xB8 DUP2 PUSH2 0x9D JUMP JUMPDEST DUP2 EQ PUSH2 0xC3 JUMPI PUSH1 0x0 DUP1 REVERT JUMPDEST POP JUMP JUMPDEST PUSH1 0x0 DUP2 MLOAD SWAP1 POP PUSH2 0xD5 DUP2 PUSH2 0xAF JUMP JUMPDEST SWAP3 SWAP2 POP POP JUMP JUMPDEST PUSH1 0x0 PUSH1 0x20 DUP3 DUP5 SUB SLT ISZERO PUSH2 0xF1 JUMPI PUSH2 0xF0 PUSH2 0x78 JUMP JUMPDEST JUMPDEST PUSH1 0x0 PUSH2 0xFF DUP5 DUP3 DUP6 ADD PUSH2 0xC6 JUMP JUMPDEST SWAP2 POP POP SWAP3 SWAP2 POP POP JUMP JUMPDEST PUSH2 0xD08 DUP1 PUSH2 0x117 PUSH1 0x0 CODECOPY PUSH1 0x0 RETURN INVALID PUSH1 0x80 PUSH1 0x40 MSTORE CALLVALUE DUP1 ISZERO PUSH2 0x10 JUMPI PUSH1 0x0 DUP1 REVERT JUMPDEST POP PUSH1 0x4 CALLDATASIZE LT PUSH2 0x41 JUMPI PUSH1 0x0 CALLDATALOAD PUSH1 0xE0 SHR DUP1 PUSH4 0x469C8110 EQ PUSH2 0x46 JUMPI DUP1 PUSH4 0x5FF6CBF3 EQ PUSH2 0x62 JUMPI DUP1 PUSH4 0xB62367C9 EQ PUSH2 0x80 JUMPI JUMPDEST PUSH1 0x0 DUP1 REVERT JUMPDEST PUSH2 0x60 PUSH1 0x4 DUP1 CALLDATASIZE SUB DUP2 ADD SWAP1 PUSH2 0x5B SWAP2 SWAP1 PUSH2 0x53C JUMP JUMPDEST PUSH2 0x9E JUMP JUMPDEST STOP JUMPDEST PUSH2 0x6A PUSH2 0x277 JUMP JUMPDEST PUSH1 0x40 MLOAD PUSH2 0x77 SWAP2 SWAP1 PUSH2 0x744 JUMP JUMPDEST PUSH1 0x40 MLOAD DUP1 SWAP2 SUB SWAP1 RETURN JUMPDEST PUSH2 0x88 PUSH2 0x3BE JUMP JUMPDEST PUSH1 0x40 MLOAD PUSH2 0x95 SWAP2 SWAP1 PUSH2 0x7C5 JUMP JUMPDEST PUSH1 0x40 MLOAD DUP1 SWAP2 SUB SWAP1 RETURN JUMPDEST PUSH1 0x0 DUP1 PUSH1 0x0 DUP1 SLOAD SWAP1 PUSH2 0x100 EXP SWAP1 DIV PUSH20 0xFFFFFFFFFFFFFFFFFFFFFFFFFFFFFFFFFFFFFFFF AND PUSH20 0xFFFFFFFFFFFFFFFFFFFFFFFFFFFFFFFFFFFFFFFF AND PUSH4 0x6F77926B CALLER PUSH1 0x40 MLOAD DUP3 PUSH4 0xFFFFFFFF AND PUSH1 0xE0 SHL DUP2 MSTORE PUSH1 0x4 ADD PUSH2 0xFA SWAP2 SWAP1 PUSH2 0x7EF JUMP JUMPDEST PUSH1 0x0 PUSH1 0x40 MLOAD DUP1 DUP4 SUB DUP2 DUP7 GAS STATICCALL ISZERO DUP1 ISZERO PUSH2 0x117 JUMPI RETURNDATASIZE PUSH1 0x0 DUP1 RETURNDATACOPY RETURNDATASIZE PUSH1 0x0 REVERT JUMPDEST POP POP POP POP PUSH1 0x40 MLOAD RETURNDATASIZE PUSH1 0x0 DUP3 RETURNDATACOPY RETURNDATASIZE PUSH1 0x1F NOT PUSH1 0x1F DUP3 ADD AND DUP3 ADD DUP1 PUSH1 0x40 MSTORE POP DUP2 ADD SWAP1 PUSH2 0x140 SWAP2 SWAP1 PUSH2 0x8B2 JUMP JUMPDEST SWAP2 POP SWAP2 POP DUP1 PUSH2 0x184 JUMPI PUSH1 0x40 MLOAD PUSH32 0x8C379A000000000000000000000000000000000000000000000000000000000 DUP2 MSTORE PUSH1 0x4 ADD PUSH2 0x17B SWAP1 PUSH2 0x96B JUMP JUMPDEST PUSH1 0x40 MLOAD DUP1 SWAP2 SUB SWAP1 REVERT JUMPDEST PUSH1 0x1 PUSH1 0x40 MLOAD DUP1 PUSH1 0x40 ADD PUSH1 0x40 MSTORE DUP1 CALLER PUSH20 0xFFFFFFFFFFFFFFFFFFFFFFFFFFFFFFFFFFFFFFFF AND DUP2 MSTORE PUSH1 0x20 ADD DUP6 DUP2 MSTORE POP SWAP1 DUP1 PUSH1 0x1 DUP2 SLOAD ADD DUP1 DUP3 SSTORE DUP1 SWAP2 POP POP PUSH1 0x1 SWAP1 SUB SWAP1 PUSH1 0x0 MSTORE PUSH1 0x20 PUSH1 0x0 KECCAK256 SWAP1 PUSH1 0x2 MUL ADD PUSH1 0x0 SWAP1 SWAP2 SWAP1 SWAP2 SWAP1 SWAP2 POP PUSH1 0x0 DUP3 ADD MLOAD DUP2 PUSH1 0x0 ADD PUSH1 0x0 PUSH2 0x100 EXP DUP2 SLOAD DUP2 PUSH20 0xFFFFFFFFFFFFFFFFFFFFFFFFFFFFFFFFFFFFFFFF MUL NOT AND SWAP1 DUP4 PUSH20 0xFFFFFFFFFFFFFFFFFFFFFFFFFFFFFFFFFFFFFFFF AND MUL OR SWAP1 SSTORE POP PUSH1 0x20 DUP3 ADD MLOAD DUP2 PUSH1 0x1 ADD SWAP1 DUP2 PUSH2 0x236 SWAP2 SWAP1 PUSH2 0xB97 JUMP JUMPDEST POP POP POP PUSH32 0xD7FCCDA06D6EB51C23CBD16D49B9B3F3EBAFB002DBA1B074895CBB35D0E8130 CALLER DUP5 PUSH1 0x40 MLOAD PUSH2 0x26A SWAP3 SWAP2 SWAP1 PUSH2 0xCA2 JUMP JUMPDEST PUSH1 0x40 MLOAD DUP1 SWAP2 SUB SWAP1 LOG1 POP POP POP JUMP JUMPDEST PUSH1 0x60 PUSH1 0x1 DUP1 SLOAD DUP1 PUSH1 0x20 MUL PUSH1 0x20 ADD PUSH1 0x40 MLOAD SWAP1 DUP2 ADD PUSH1 0x40 MSTORE DUP1 SWAP3 SWAP2 SWAP1 DUP2 DUP2 MSTORE PUSH1 0x20 ADD PUSH1 0x0 SWAP1 JUMPDEST DUP3 DUP3 LT ISZERO PUSH2 0x3B5 JUMPI DUP4 DUP3 SWAP1 PUSH1 0x0 MSTORE PUSH1 0x20 PUSH1 0x0 KECCAK256 SWAP1 PUSH1 0x2 MUL ADD PUSH1 0x40 MLOAD DUP1 PUSH1 0x40 ADD PUSH1 0x40 MSTORE SWAP1 DUP2 PUSH1 0x0 DUP3 ADD PUSH1 0x0 SWAP1 SLOAD SWAP1 PUSH2 0x100 EXP SWAP1 DIV PUSH20 0xFFFFFFFFFFFFFFFFFFFFFFFFFFFFFFFFFFFFFFFF AND PUSH20 0xFFFFFFFFFFFFFFFFFFFFFFFFFFFFFFFFFFFFFFFF AND PUSH20 0xFFFFFFFFFFFFFFFFFFFFFFFFFFFFFFFFFFFFFFFF AND DUP2 MSTORE PUSH1 0x20 ADD PUSH1 0x1 DUP3 ADD DUP1 SLOAD PUSH2 0x324 SWAP1 PUSH2 0x9BA JUMP JUMPDEST DUP1 PUSH1 0x1F ADD PUSH1 0x20 DUP1 SWAP2 DIV MUL PUSH1 0x20 ADD PUSH1 0x40 MLOAD SWAP1 DUP2 ADD PUSH1 0x40 MSTORE DUP1 SWAP3 SWAP2 SWAP1 DUP2 DUP2 MSTORE PUSH1 0x20 ADD DUP3 DUP1 SLOAD PUSH2 0x350 SWAP1 PUSH2 0x9BA JUMP JUMPDEST DUP1 ISZERO PUSH2 0x39D JUMPI DUP1 PUSH1 0x1F LT PUSH2 0x372 JUMPI PUSH2 0x100 DUP1 DUP4 SLOAD DIV MUL DUP4 MSTORE SWAP2 PUSH1 0x20 ADD SWAP2 PUSH2 0x39D JUMP JUMPDEST DUP3 ADD SWAP2 SWAP1 PUSH1 0x0 MSTORE PUSH1 0x20 PUSH1 0x0 KECCAK256 SWAP1 JUMPDEST DUP2 SLOAD DUP2 MSTORE SWAP1 PUSH1 0x1 ADD SWAP1 PUSH1 0x20 ADD DUP1 DUP4 GT PUSH2 0x380 JUMPI DUP3 SWAP1 SUB PUSH1 0x1F AND DUP3 ADD SWAP2 JUMPDEST POP POP POP POP POP DUP2 MSTORE POP POP DUP2 MSTORE PUSH1 0x20 ADD SWAP1 PUSH1 0x1 ADD SWAP1 PUSH2 0x29B JUMP JUMPDEST POP POP POP POP SWAP1 POP SWAP1 JUMP JUMPDEST PUSH1 0x0 DUP1 SLOAD SWAP1 PUSH2 0x100 EXP SWAP1 DIV PUSH20 0xFFFFFFFFFFFFFFFFFFFFFFFFFFFFFFFFFFFFFFFF AND DUP2 JUMP JUMPDEST PUSH1 0x0 PUSH1 0x40 MLOAD SWAP1 POP SWAP1 JUMP JUMPDEST PUSH1 0x0 DUP1 REVERT JUMPDEST PUSH1 0x0 DUP1 REVERT JUMPDEST PUSH1 0x0 DUP1 REVERT JUMPDEST PUSH1 0x0 DUP1 REVERT JUMPDEST PUSH1 0x0 PUSH1 0x1F NOT PUSH1 0x1F DUP4 ADD AND SWAP1 POP SWAP2 SWAP1 POP JUMP JUMPDEST PUSH32 0x4E487B7100000000000000000000000000000000000000000000000000000000 PUSH1 0x0 MSTORE PUSH1 0x41 PUSH1 0x4 MSTORE PUSH1 0x24 PUSH1 0x0 REVERT JUMPDEST PUSH2 0x449 DUP3 PUSH2 0x400 JUMP JUMPDEST DUP2 ADD DUP2 DUP2 LT PUSH8 0xFFFFFFFFFFFFFFFF DUP3 GT OR ISZERO PUSH2 0x468 JUMPI PUSH2 0x467 PUSH2 0x411 JUMP JUMPDEST JUMPDEST DUP1 PUSH1 0x40 MSTORE POP POP POP JUMP JUMPDEST PUSH1 0x0 PUSH2 0x47B PUSH2 0x3E2 JUMP JUMPDEST SWAP1 POP PUSH2 0x487 DUP3 DUP3 PUSH2 0x440 JUMP JUMPDEST SWAP2 SWAP1 POP JUMP JUMPDEST PUSH1 0x0 PUSH8 0xFFFFFFFFFFFFFFFF DUP3 GT ISZERO PUSH2 0x4A7 JUMPI PUSH2 0x4A6 PUSH2 0x411 JUMP JUMPDEST JUMPDEST PUSH2 0x4B0 DUP3 PUSH2 0x400 JUMP JUMPDEST SWAP1 POP PUSH1 0x20 DUP2 ADD SWAP1 POP SWAP2 SWAP1 POP JUMP JUMPDEST DUP3 DUP2 DUP4 CALLDATACOPY PUSH1 0x0 DUP4 DUP4 ADD MSTORE POP POP POP JUMP JUMPDEST PUSH1 0x0 PUSH2 0x4DF PUSH2 0x4DA DUP5 PUSH2 0x48C JUMP JUMPDEST PUSH2 0x471 JUMP JUMPDEST SWAP1 POP DUP3 DUP2 MSTORE PUSH1 0x20 DUP2 ADD DUP5 DUP5 DUP5 ADD GT ISZERO PUSH2 0x4FB JUMPI PUSH2 0x4FA PUSH2 0x3FB JUMP JUMPDEST JUMPDEST PUSH2 0x506 DUP5 DUP3 DUP6 PUSH2 0x4BD JUMP JUMPDEST POP SWAP4 SWAP3 POP POP POP JUMP JUMPDEST PUSH1 0x0 DUP3 PUSH1 0x1F DUP4 ADD SLT PUSH2 0x523 JUMPI PUSH2 0x522 PUSH2 0x3F6 JUMP JUMPDEST JUMPDEST DUP2 CALLDATALOAD PUSH2 0x533 DUP5 DUP3 PUSH1 0x20 DUP7 ADD PUSH2 0x4CC JUMP JUMPDEST SWAP2 POP POP SWAP3 SWAP2 POP POP JUMP JUMPDEST PUSH1 0x0 PUSH1 0x20 DUP3 DUP5 SUB SLT ISZERO PUSH2 0x552 JUMPI PUSH2 0x551 PUSH2 0x3EC JUMP JUMPDEST JUMPDEST PUSH1 0x0 DUP3 ADD CALLDATALOAD PUSH8 0xFFFFFFFFFFFFFFFF DUP2 GT ISZERO PUSH2 0x570 JUMPI PUSH2 0x56F PUSH2 0x3F1 JUMP JUMPDEST JUMPDEST PUSH2 0x57C DUP5 DUP3 DUP6 ADD PUSH2 0x50E JUMP JUMPDEST SWAP2 POP POP SWAP3 SWAP2 POP POP JUMP JUMPDEST PUSH1 0x0 DUP2 MLOAD SWAP1 POP SWAP2 SWAP1 POP JUMP JUMPDEST PUSH1 0x0 DUP3 DUP3 MSTORE PUSH1 0x20 DUP3 ADD SWAP1 POP SWAP3 SWAP2 POP POP JUMP JUMPDEST PUSH1 0x0 DUP2 SWAP1 POP PUSH1 0x20 DUP3 ADD SWAP1 POP SWAP2 SWAP1 POP JUMP JUMPDEST PUSH1 0x0 PUSH20 0xFFFFFFFFFFFFFFFFFFFFFFFFFFFFFFFFFFFFFFFF DUP3 AND SWAP1 POP SWAP2 SWAP1 POP JUMP JUMPDEST PUSH1 0x0 PUSH2 0x5DC DUP3 PUSH2 0x5B1 JUMP JUMPDEST SWAP1 POP SWAP2 SWAP1 POP JUMP JUMPDEST PUSH2 0x5EC DUP2 PUSH2 0x5D1 JUMP JUMPDEST DUP3 MSTORE POP POP JUMP JUMPDEST PUSH1 0x0 DUP2 MLOAD SWAP1 POP SWAP2 SWAP1 POP JUMP JUMPDEST PUSH1 0x0 DUP3 DUP3 MSTORE PUSH1 0x20 DUP3 ADD SWAP1 POP SWAP3 SWAP2 POP POP JUMP JUMPDEST PUSH1 0x0 JUMPDEST DUP4 DUP2 LT ISZERO PUSH2 0x62C JUMPI DUP1 DUP3 ADD MLOAD DUP2 DUP5 ADD MSTORE PUSH1 0x20 DUP2 ADD SWAP1 POP PUSH2 0x611 JUMP JUMPDEST PUSH1 0x0 DUP5 DUP5 ADD MSTORE POP POP POP POP JUMP JUMPDEST PUSH1 0x0 PUSH2 0x643 DUP3 PUSH2 0x5F2 JUMP JUMPDEST PUSH2 0x64D DUP2 DUP6 PUSH2 0x5FD JUMP JUMPDEST SWAP4 POP PUSH2 0x65D DUP2 DUP6 PUSH1 0x20 DUP7 ADD PUSH2 0x60E JUMP JUMPDEST PUSH2 0x666 DUP2 PUSH2 0x400 JUMP JUMPDEST DUP5 ADD SWAP2 POP POP SWAP3 SWAP2 POP POP JUMP JUMPDEST PUSH1 0x0 PUSH1 0x40 DUP4 ADD PUSH1 0x0 DUP4 ADD MLOAD PUSH2 0x689 PUSH1 0x0 DUP7 ADD DUP3 PUSH2 0x5E3 JUMP JUMPDEST POP PUSH1 0x20 DUP4 ADD MLOAD DUP5 DUP3 SUB PUSH1 0x20 DUP7 ADD MSTORE PUSH2 0x6A1 DUP3 DUP3 PUSH2 0x638 JUMP JUMPDEST SWAP2 POP POP DUP1 SWAP2 POP POP SWAP3 SWAP2 POP POP JUMP JUMPDEST PUSH1 0x0 PUSH2 0x6BA DUP4 DUP4 PUSH2 0x671 JUMP JUMPDEST SWAP1 POP SWAP3 SWAP2 POP POP JUMP JUMPDEST PUSH1 0x0 PUSH1 0x20 DUP3 ADD SWAP1 POP SWAP2 SWAP1 POP JUMP JUMPDEST PUSH1 0x0 PUSH2 0x6DA DUP3 PUSH2 0x585 JUMP JUMPDEST PUSH2 0x6E4 DUP2 DUP6 PUSH2 0x590 JUMP JUMPDEST SWAP4 POP DUP4 PUSH1 0x20 DUP3 MUL DUP6 ADD PUSH2 0x6F6 DUP6 PUSH2 0x5A1 JUMP JUMPDEST DUP1 PUSH1 0x0 JUMPDEST DUP6 DUP2 LT ISZERO PUSH2 0x732 JUMPI DUP5 DUP5 SUB DUP10 MSTORE DUP2 MLOAD PUSH2 0x713 DUP6 DUP3 PUSH2 0x6AE JUMP JUMPDEST SWAP5 POP PUSH2 0x71E DUP4 PUSH2 0x6C2 JUMP JUMPDEST SWAP3 POP PUSH1 0x20 DUP11 ADD SWAP10 POP POP PUSH1 0x1 DUP2 ADD SWAP1 POP PUSH2 0x6FA JUMP JUMPDEST POP DUP3 SWAP8 POP DUP8 SWAP6 POP POP POP POP POP POP SWAP3 SWAP2 POP POP JUMP JUMPDEST PUSH1 0x0 PUSH1 0x20 DUP3 ADD SWAP1 POP DUP2 DUP2 SUB PUSH1 0x0 DUP4 ADD MSTORE PUSH2 0x75E DUP2 DUP5 PUSH2 0x6CF JUMP JUMPDEST SWAP1 POP SWAP3 SWAP2 POP POP JUMP JUMPDEST PUSH1 0x0 DUP2 SWAP1 POP SWAP2 SWAP1 POP JUMP JUMPDEST PUSH1 0x0 PUSH2 0x78B PUSH2 0x786 PUSH2 0x781 DUP5 PUSH2 0x5B1 JUMP JUMPDEST PUSH2 0x766 JUMP JUMPDEST PUSH2 0x5B1 JUMP JUMPDEST SWAP1 POP SWAP2 SWAP1 POP JUMP JUMPDEST PUSH1 0x0 PUSH2 0x79D DUP3 PUSH2 0x770 JUMP JUMPDEST SWAP1 POP SWAP2 SWAP1 POP JUMP JUMPDEST PUSH1 0x0 PUSH2 0x7AF DUP3 PUSH2 0x792 JUMP JUMPDEST SWAP1 POP SWAP2 SWAP1 POP JUMP JUMPDEST PUSH2 0x7BF DUP2 PUSH2 0x7A4 JUMP JUMPDEST DUP3 MSTORE POP POP JUMP JUMPDEST PUSH1 0x0 PUSH1 0x20 DUP3 ADD SWAP1 POP PUSH2 0x7DA PUSH1 0x0 DUP4 ADD DUP5 PUSH2 0x7B6 JUMP JUMPDEST SWAP3 SWAP2 POP POP JUMP JUMPDEST PUSH2 0x7E9 DUP2 PUSH2 0x5D1 JUMP JUMPDEST DUP3 MSTORE POP POP JUMP JUMPDEST PUSH1 0x0 PUSH1 0x20 DUP3 ADD SWAP1 POP PUSH2 0x804 PUSH1 0x0 DUP4 ADD DUP5 PUSH2 0x7E0 JUMP JUMPDEST SWAP3 SWAP2 POP POP JUMP JUMPDEST PUSH1 0x0 PUSH2 0x81D PUSH2 0x818 DUP5 PUSH2 0x48C JUMP JUMPDEST PUSH2 0x471 JUMP JUMPDEST SWAP1 POP DUP3 DUP2 MSTORE PUSH1 0x20 DUP2 ADD DUP5 DUP5 DUP5 ADD GT ISZERO PUSH2 0x839 JUMPI PUSH2 0x838 PUSH2 0x3FB JUMP JUMPDEST JUMPDEST PUSH2 0x844 DUP5 DUP3 DUP6 PUSH2 0x60E JUMP JUMPDEST POP SWAP4 SWAP3 POP POP POP JUMP JUMPDEST PUSH1 0x0 DUP3 PUSH1 0x1F DUP4 ADD SLT PUSH2 0x861 JUMPI PUSH2 0x860 PUSH2 0x3F6 JUMP JUMPDEST JUMPDEST DUP2 MLOAD PUSH2 0x871 DUP5 DUP3 PUSH1 0x20 DUP7 ADD PUSH2 0x80A JUMP JUMPDEST SWAP2 POP POP SWAP3 SWAP2 POP POP JUMP JUMPDEST PUSH1 0x0 DUP2 ISZERO ISZERO SWAP1 POP SWAP2 SWAP1 POP JUMP JUMPDEST PUSH2 0x88F DUP2 PUSH2 0x87A JUMP JUMPDEST DUP2 EQ PUSH2 0x89A JUMPI PUSH1 0x0 DUP1 REVERT JUMPDEST POP JUMP JUMPDEST PUSH1 0x0 DUP2 MLOAD SWAP1 POP PUSH2 0x8AC DUP2 PUSH2 0x886 JUMP JUMPDEST SWAP3 SWAP2 POP POP JUMP JUMPDEST PUSH1 0x0 DUP1 PUSH1 0x40 DUP4 DUP6 SUB SLT ISZERO PUSH2 0x8C9 JUMPI PUSH2 0x8C8 PUSH2 0x3EC JUMP JUMPDEST JUMPDEST PUSH1 0x0 DUP4 ADD MLOAD PUSH8 0xFFFFFFFFFFFFFFFF DUP2 GT ISZERO PUSH2 0x8E7 JUMPI PUSH2 0x8E6 PUSH2 0x3F1 JUMP JUMPDEST JUMPDEST PUSH2 0x8F3 DUP6 DUP3 DUP7 ADD PUSH2 0x84C JUMP JUMPDEST SWAP3 POP POP PUSH1 0x20 PUSH2 0x904 DUP6 DUP3 DUP7 ADD PUSH2 0x89D JUMP JUMPDEST SWAP2 POP POP SWAP3 POP SWAP3 SWAP1 POP JUMP JUMPDEST PUSH1 0x0 DUP3 DUP3 MSTORE PUSH1 0x20 DUP3 ADD SWAP1 POP SWAP3 SWAP2 POP POP JUMP JUMPDEST PUSH32 0x55736572206E6F74207265676973746572656400000000000000000000000000 PUSH1 0x0 DUP3 ADD MSTORE POP JUMP JUMPDEST PUSH1 0x0 PUSH2 0x955 PUSH1 0x13 DUP4 PUSH2 0x90E JUMP JUMPDEST SWAP2 POP PUSH2 0x960 DUP3 PUSH2 0x91F JUMP JUMPDEST PUSH1 0x20 DUP3 ADD SWAP1 POP SWAP2 SWAP1 POP JUMP JUMPDEST PUSH1 0x0 PUSH1 0x20 DUP3 ADD SWAP1 POP DUP2 DUP2 SUB PUSH1 0x0 DUP4 ADD MSTORE PUSH2 0x984 DUP2 PUSH2 0x948 JUMP JUMPDEST SWAP1 POP SWAP2 SWAP1 POP JUMP JUMPDEST PUSH32 0x4E487B7100000000000000000000000000000000000000000000000000000000 PUSH1 0x0 MSTORE PUSH1 0x22 PUSH1 0x4 MSTORE PUSH1 0x24 PUSH1 0x0 REVERT JUMPDEST PUSH1 0x0 PUSH1 0x2 DUP3 DIV SWAP1 POP PUSH1 0x1 DUP3 AND DUP1 PUSH2 0x9D2 JUMPI PUSH1 0x7F DUP3 AND SWAP2 POP JUMPDEST PUSH1 0x20 DUP3 LT DUP2 SUB PUSH2 0x9E5 JUMPI PUSH2 0x9E4 PUSH2 0x98B JUMP JUMPDEST JUMPDEST POP SWAP2 SWAP1 POP JUMP JUMPDEST PUSH1 0x0 DUP2 SWAP1 POP DUP2 PUSH1 0x0 MSTORE PUSH1 0x20 PUSH1 0x0 KECCAK256 SWAP1 POP SWAP2 SWAP1 POP JUMP JUMPDEST PUSH1 0x0 PUSH1 0x20 PUSH1 0x1F DUP4 ADD DIV SWAP1 POP SWAP2 SWAP1 POP JUMP JUMPDEST PUSH1 0x0 DUP3 DUP3 SHL SWAP1 POP SWAP3 SWAP2 POP POP JUMP JUMPDEST PUSH1 0x0 PUSH1 0x8 DUP4 MUL PUSH2 0xA4D PUSH32 0xFFFFFFFFFFFFFFFFFFFFFFFFFFFFFFFFFFFFFFFFFFFFFFFFFFFFFFFFFFFFFFFF DUP3 PUSH2 0xA10 JUMP JUMPDEST PUSH2 0xA57 DUP7 DUP4 PUSH2 0xA10 JUMP JUMPDEST SWAP6 POP DUP1 NOT DUP5 AND SWAP4 POP DUP1 DUP7 AND DUP5 OR SWAP3 POP POP POP SWAP4 SWAP3 POP POP POP JUMP JUMPDEST PUSH1 0x0 DUP2 SWAP1 POP SWAP2 SWAP1 POP JUMP JUMPDEST PUSH1 0x0 PUSH2 0xA94 PUSH2 0xA8F PUSH2 0xA8A DUP5 PUSH2 0xA6F JUMP JUMPDEST PUSH2 0x766 JUMP JUMPDEST PUSH2 0xA6F JUMP JUMPDEST SWAP1 POP SWAP2 SWAP1 POP JUMP JUMPDEST PUSH1 0x0 DUP2 SWAP1 POP SWAP2 SWAP1 POP JUMP JUMPDEST PUSH2 0xAAE DUP4 PUSH2 0xA79 JUMP JUMPDEST PUSH2 0xAC2 PUSH2 0xABA DUP3 PUSH2 0xA9B JUMP JUMPDEST DUP5 DUP5 SLOAD PUSH2 0xA1D JUMP JUMPDEST DUP3 SSTORE POP POP POP POP JUMP JUMPDEST PUSH1 0x0 SWAP1 JUMP JUMPDEST PUSH2 0xAD7 PUSH2 0xACA JUMP JUMPDEST PUSH2 0xAE2 DUP2 DUP5 DUP5 PUSH2 0xAA5 JUMP JUMPDEST POP POP POP JUMP JUMPDEST JUMPDEST DUP2 DUP2 LT ISZERO PUSH2 0xB06 JUMPI PUSH2 0xAFB PUSH1 0x0 DUP3 PUSH2 0xACF JUMP JUMPDEST PUSH1 0x1 DUP2 ADD SWAP1 POP PUSH2 0xAE8 JUMP JUMPDEST POP POP JUMP JUMPDEST PUSH1 0x1F DUP3 GT ISZERO PUSH2 0xB4B JUMPI PUSH2 0xB1C DUP2 PUSH2 0x9EB JUMP JUMPDEST PUSH2 0xB25 DUP5 PUSH2 0xA00 JUMP JUMPDEST DUP2 ADD PUSH1 0x20 DUP6 LT ISZERO PUSH2 0xB34 JUMPI DUP2 SWAP1 POP JUMPDEST PUSH2 0xB48 PUSH2 0xB40 DUP6 PUSH2 0xA00 JUMP JUMPDEST DUP4 ADD DUP3 PUSH2 0xAE7 JUMP JUMPDEST POP POP JUMPDEST POP POP POP JUMP JUMPDEST PUSH1 0x0 DUP3 DUP3 SHR SWAP1 POP SWAP3 SWAP2 POP POP JUMP JUMPDEST PUSH1 0x0 PUSH2 0xB6E PUSH1 0x0 NOT DUP5 PUSH1 0x8 MUL PUSH2 0xB50 JUMP JUMPDEST NOT DUP1 DUP4 AND SWAP2 POP POP SWAP3 SWAP2 POP POP JUMP JUMPDEST PUSH1 0x0 PUSH2 0xB87 DUP4 DUP4 PUSH2 0xB5D JUMP JUMPDEST SWAP2 POP DUP3 PUSH1 0x2 MUL DUP3 OR SWAP1 POP SWAP3 SWAP2 POP POP JUMP JUMPDEST PUSH2 0xBA0 DUP3 PUSH2 0x5F2 JUMP JUMPDEST PUSH8 0xFFFFFFFFFFFFFFFF DUP2 GT ISZERO PUSH2 0xBB9 JUMPI PUSH2 0xBB8 PUSH2 0x411 JUMP JUMPDEST JUMPDEST PUSH2 0xBC3 DUP3 SLOAD PUSH2 0x9BA JUMP JUMPDEST PUSH2 0xBCE DUP3 DUP3 DUP6 PUSH2 0xB0A JUMP JUMPDEST PUSH1 0x0 PUSH1 0x20 SWAP1 POP PUSH1 0x1F DUP4 GT PUSH1 0x1 DUP2 EQ PUSH2 0xC01 JUMPI PUSH1 0x0 DUP5 ISZERO PUSH2 0xBEF JUMPI DUP3 DUP8 ADD MLOAD SWAP1 POP JUMPDEST PUSH2 0xBF9 DUP6 DUP3 PUSH2 0xB7B JUMP JUMPDEST DUP7 SSTORE POP PUSH2 0xC61 JUMP JUMPDEST PUSH1 0x1F NOT DUP5 AND PUSH2 0xC0F DUP7 PUSH2 0x9EB JUMP JUMPDEST PUSH1 0x0 JUMPDEST DUP3 DUP2 LT ISZERO PUSH2 0xC37 JUMPI DUP5 DUP10 ADD MLOAD DUP3 SSTORE PUSH1 0x1 DUP3 ADD SWAP2 POP PUSH1 0x20 DUP6 ADD SWAP5 POP PUSH1 0x20 DUP2 ADD SWAP1 POP PUSH2 0xC12 JUMP JUMPDEST DUP7 DUP4 LT ISZERO PUSH2 0xC54 JUMPI DUP5 DUP10 ADD MLOAD PUSH2 0xC50 PUSH1 0x1F DUP10 AND DUP3 PUSH2 0xB5D JUMP JUMPDEST DUP4 SSTORE POP JUMPDEST PUSH1 0x1 PUSH1 0x2 DUP9 MUL ADD DUP9 SSTORE POP POP POP JUMPDEST POP POP POP POP POP POP JUMP JUMPDEST PUSH1 0x0 PUSH2 0xC74 DUP3 PUSH2 0x5F2 JUMP JUMPDEST PUSH2 0xC7E DUP2 DUP6 PUSH2 0x90E JUMP JUMPDEST SWAP4 POP PUSH2 0xC8E DUP2 DUP6 PUSH1 0x20 DUP7 ADD PUSH2 0x60E JUMP JUMPDEST PUSH2 0xC97 DUP2 PUSH2 0x400 JUMP JUMPDEST DUP5 ADD SWAP2 POP POP SWAP3 SWAP2 POP POP JUMP JUMPDEST PUSH1 0x0 PUSH1 0x40 DUP3 ADD SWAP1 POP PUSH2 0xCB7 PUSH1 0x0 DUP4 ADD DUP6 PUSH2 0x7E0 JUMP JUMPDEST DUP2 DUP2 SUB PUSH1 0x20 DUP4 ADD MSTORE PUSH2 0xCC9 DUP2 DUP5 PUSH2 0xC69 JUMP JUMPDEST SWAP1 POP SWAP4 SWAP3 POP POP POP JUMP INVALID LOG2 PUSH5 0x6970667358 0x22 SLT KECCAK256 0xD6 0xBF SWAP2 0x2C PUSH22 0x3727A3C3ED6DEDC83BB0C87320627523609B90FD7FF2 0xAC 0xB2 DUP11 0xEF DUP15 PUSH5 0x736F6C6343 STOP ADDMOD XOR STOP CALLER "
        },
        "methodIdentifiers": {
          "authContract()": "b62367c9",
          "getMessages()": "5ff6cbf3",
          "sendMessage(string)": "469c8110"
        }
      }
    }
  }
}